{
  "contractName": "Broker",
  "abi": [
    {
      "constant": true,
      "inputs": [],
      "name": "count",
      "outputs": [
        {
          "name": "",
          "type": "uint256"
        }
      ],
      "payable": false,
      "stateMutability": "view",
      "type": "function"
    },
    {
      "anonymous": false,
      "inputs": [
        {
          "indexed": false,
          "name": "index",
          "type": "uint64"
        },
        {
          "indexed": false,
          "name": "to",
          "type": "address"
        },
        {
          "indexed": false,
          "name": "fid",
          "type": "address"
        },
        {
          "indexed": false,
          "name": "tid",
          "type": "string"
        },
        {
          "indexed": false,
          "name": "funcs",
          "type": "string"
        },
        {
          "indexed": false,
          "name": "args",
          "type": "string"
        },
        {
          "indexed": false,
          "name": "argscb",
          "type": "string"
        },
        {
          "indexed": false,
          "name": "argsrb",
          "type": "string"
        }
      ],
      "name": "throwEvent",
      "type": "event"
    },
    {
      "anonymous": false,
      "inputs": [
        {
          "indexed": false,
          "name": "status",
          "type": "bool"
        },
        {
          "indexed": false,
          "name": "data",
          "type": "string"
        }
      ],
      "name": "LogInterchainData",
      "type": "event"
    },
    {
      "anonymous": false,
      "inputs": [
        {
          "indexed": false,
          "name": "status",
          "type": "bool"
        }
      ],
      "name": "LogInterchainStatus",
      "type": "event"
    },
    {
      "anonymous": false,
      "inputs": [
        {
          "indexed": false,
          "name": "message",
          "type": "string"
        }
      ],
      "name": "Logger",
      "type": "event"
    },
    {
      "anonymous": false,
      "inputs": [
        {
          "indexed": false,
          "name": "where",
          "type": "string"
        },
        {
          "indexed": false,
          "name": "time",
          "type": "uint256"
        }
      ],
      "name": "Timer",
      "type": "event"
    },
    {
      "constant": false,
      "inputs": [],
      "name": "increment",
      "outputs": [],
      "payable": false,
      "stateMutability": "nonpayable",
      "type": "function"
    },
    {
      "constant": false,
      "inputs": [],
      "name": "initialize",
      "outputs": [],
      "payable": false,
      "stateMutability": "nonpayable",
      "type": "function"
    },
    {
      "constant": false,
      "inputs": [
        {
          "name": "addr",
          "type": "address"
        }
      ],
      "name": "register",
      "outputs": [],
      "payable": false,
      "stateMutability": "nonpayable",
      "type": "function"
    },
    {
      "constant": false,
      "inputs": [
        {
          "name": "addr",
          "type": "address"
        },
        {
          "name": "status",
          "type": "int64"
        }
      ],
      "name": "audit",
      "outputs": [
        {
          "name": "",
          "type": "bool"
        }
      ],
      "payable": false,
      "stateMutability": "nonpayable",
      "type": "function"
    },
    {
      "constant": false,
      "inputs": [
        {
          "name": "srcChainID",
          "type": "address"
        },
        {
          "name": "index",
          "type": "uint64"
        },
        {
          "name": "destAddr",
          "type": "address"
        },
        {
          "name": "req",
          "type": "bool"
        },
        {
          "name": "bizCallData",
          "type": "bytes"
        }
      ],
      "name": "invokeInterchain",
      "outputs": [],
      "payable": true,
      "stateMutability": "payable",
      "type": "function"
    },
    {
      "constant": false,
      "inputs": [
        {
          "name": "srcChainID",
          "type": "address"
        },
        {
          "name": "index",
          "type": "uint64"
        },
        {
          "name": "req",
          "type": "bool"
        },
        {
          "name": "err",
          "type": "string"
        }
      ],
      "name": "invokeIndexUpdateWithError",
      "outputs": [],
      "payable": false,
      "stateMutability": "nonpayable",
      "type": "function"
    },
    {
      "constant": false,
      "inputs": [
        {
          "name": "destChainID",
          "type": "address"
        },
        {
          "name": "destAddr",
          "type": "string"
        },
        {
          "name": "funcs",
          "type": "string"
        },
        {
          "name": "args",
          "type": "string"
        },
        {
          "name": "argscb",
          "type": "string"
        },
        {
          "name": "argsrb",
          "type": "string"
        }
      ],
      "name": "emitInterchainEvent",
      "outputs": [],
      "payable": false,
      "stateMutability": "nonpayable",
      "type": "function"
    },
    {
      "constant": true,
      "inputs": [],
      "name": "getOuterMeta",
      "outputs": [
        {
          "name": "",
          "type": "address[]"
        },
        {
          "name": "",
          "type": "uint64[]"
        }
      ],
      "payable": false,
      "stateMutability": "view",
      "type": "function"
    },
    {
      "constant": true,
      "inputs": [
        {
          "name": "to",
          "type": "address"
        },
        {
          "name": "idx",
          "type": "uint64"
        }
      ],
      "name": "getOutMessage",
      "outputs": [
        {
          "name": "",
          "type": "uint256"
        }
      ],
      "payable": false,
      "stateMutability": "view",
      "type": "function"
    },
    {
      "constant": true,
      "inputs": [
        {
          "name": "from",
          "type": "address"
        },
        {
          "name": "idx",
          "type": "uint64"
        }
      ],
      "name": "getInMessage",
      "outputs": [
        {
          "name": "",
          "type": "uint256"
        }
      ],
      "payable": false,
      "stateMutability": "view",
      "type": "function"
    },
    {
      "constant": true,
      "inputs": [],
      "name": "getInnerMeta",
      "outputs": [
        {
          "name": "",
          "type": "address[]"
        },
        {
          "name": "",
          "type": "uint64[]"
        }
      ],
      "payable": false,
      "stateMutability": "view",
      "type": "function"
    },
    {
      "constant": true,
      "inputs": [],
      "name": "getCallbackMeta",
      "outputs": [
        {
          "name": "",
          "type": "address[]"
        },
        {
          "name": "",
          "type": "uint64[]"
        }
      ],
      "payable": false,
      "stateMutability": "view",
      "type": "function"
    }
  ],
  "bytecode": "0x608060405234801561001057600080fd5b506128d5806100206000396000f3fe6080604052600436106100c25760003560e01c80637cf636ce1161007f578063a0342a3f11610059578063a0342a3f14610860578063b38ff85f146108d9578063c20cab501461094f578063d09de08a14610a03576100c2565b80637cf636ce146106c85780638129fc1c146107d057806383c44c27146107e7576100c2565b806306661abd146100c75780633aabe619146100f25780633b6bbe4a146101cb5780634420e4861461027f57806350b0b902146102d057806367b9fa3b14610614575b600080fd5b3480156100d357600080fd5b506100dc610a1a565b6040518082815260200191505060405180910390f35b6101c9600480360360a081101561010857600080fd5b81019080803573ffffffffffffffffffffffffffffffffffffffff169060200190929190803567ffffffffffffffff169060200190929190803573ffffffffffffffffffffffffffffffffffffffff1690602001909291908035151590602001909291908035906020019064010000000081111561018557600080fd5b82018360208201111561019757600080fd5b803590602001918460018302840111640100000000831117156101b957600080fd5b9091929391929390505050610a20565b005b3480156101d757600080fd5b506101e0610b45565b604051808060200180602001838103835285818151815260200191508051906020019060200280838360005b8381101561022757808201518184015260208101905061020c565b50505050905001838103825284818151815260200191508051906020019060200280838360005b8381101561026957808201518184015260208101905061024e565b5050505090500194505050505060405180910390f35b34801561028b57600080fd5b506102ce600480360360208110156102a257600080fd5b81019080803573ffffffffffffffffffffffffffffffffffffffff169060200190929190505050610d0d565b005b3480156102dc57600080fd5b50610612600480360360c08110156102f357600080fd5b81019080803573ffffffffffffffffffffffffffffffffffffffff1690602001909291908035906020019064010000000081111561033057600080fd5b82018360208201111561034257600080fd5b8035906020019184600183028401116401000000008311171561036457600080fd5b91908080601f016020809104026020016040519081016040528093929190818152602001838380828437600081840152601f19601f820116905080830192505050505050509192919290803590602001906401000000008111156103c757600080fd5b8201836020820111156103d957600080fd5b803590602001918460018302840111640100000000831117156103fb57600080fd5b91908080601f016020809104026020016040519081016040528093929190818152602001838380828437600081840152601f19601f8201169050808301925050505050505091929192908035906020019064010000000081111561045e57600080fd5b82018360208201111561047057600080fd5b8035906020019184600183028401116401000000008311171561049257600080fd5b91908080601f016020809104026020016040519081016040528093929190818152602001838380828437600081840152601f19601f820116905080830192505050505050509192919290803590602001906401000000008111156104f557600080fd5b82018360208201111561050757600080fd5b8035906020019184600183028401116401000000008311171561052957600080fd5b91908080601f016020809104026020016040519081016040528093929190818152602001838380828437600081840152601f19601f8201169050808301925050505050505091929192908035906020019064010000000081111561058c57600080fd5b82018360208201111561059e57600080fd5b803590602001918460018302840111640100000000831117156105c057600080fd5b91908080601f016020809104026020016040519081016040528093929190818152602001838380828437600081840152601f19601f820116905080830192505050505050509192919290505050610de1565b005b34801561062057600080fd5b50610629611494565b604051808060200180602001838103835285818151815260200191508051906020019060200280838360005b83811015610670578082015181840152602081019050610655565b50505050905001838103825284818151815260200191508051906020019060200280838360005b838110156106b2578082015181840152602081019050610697565b5050505090500194505050505060405180910390f35b3480156106d457600080fd5b506107ce600480360360808110156106eb57600080fd5b81019080803573ffffffffffffffffffffffffffffffffffffffff169060200190929190803567ffffffffffffffff1690602001909291908035151590602001909291908035906020019064010000000081111561074857600080fd5b82018360208201111561075a57600080fd5b8035906020019184600183028401116401000000008311171561077c57600080fd5b91908080601f016020809104026020016040519081016040528093929190818152602001838380828437600081840152601f19601f82011690508083019250505050505050919291929050505061163e565b005b3480156107dc57600080fd5b506107e561169b565b005b3480156107f357600080fd5b5061084a6004803603604081101561080a57600080fd5b81019080803573ffffffffffffffffffffffffffffffffffffffff169060200190929190803567ffffffffffffffff169060200190929190505050611a2d565b6040518082815260200191505060405180910390f35b34801561086c57600080fd5b506108c36004803603604081101561088357600080fd5b81019080803573ffffffffffffffffffffffffffffffffffffffff169060200190929190803567ffffffffffffffff169060200190929190505050611a9c565b6040518082815260200191505060405180910390f35b3480156108e557600080fd5b50610935600480360360408110156108fc57600080fd5b81019080803573ffffffffffffffffffffffffffffffffffffffff169060200190929190803560070b9060200190929190505050611b0b565b604051808215151515815260200191505060405180910390f35b34801561095b57600080fd5b50610964611cb0565b604051808060200180602001838103835285818151815260200191508051906020019060200280838360005b838110156109ab578082015181840152602081019050610990565b50505050905001838103825284818151815260200191508051906020019060200280838360005b838110156109ed5780820151818401526020810190506109d2565b5050505090500194505050505060405180910390f35b348015610a0f57600080fd5b50610a18611e78565b005b600d5481565b7f0796536e3e541c9658d431fac3f19b36d10b1bfecec33a82a3eb949832d6c627426040518080602001838152602001828103825260128152602001807f696e766f6b65496e746572636861696e303200000000000000000000000000008152506020019250505060405180910390a160016000808673ffffffffffffffffffffffffffffffffffffffff1673ffffffffffffffffffffffffffffffffffffffff16815260200190815260200160002060009054906101000a900460070b60070b14610aeb57600080fd5b610b0686868560405180602001604052806000815250611ed6565b604051602060848237805160208160040183378151808260240184376000808285348b5af13d806000863e8160008114610b41578186a08186f35b8186fd5b6060806060600580549050604051908082528060200260200182016040528015610b7e5781602001602082028038833980820191505090505b50905060008090505b6005805490508167ffffffffffffffff161015610c7857600a600060058367ffffffffffffffff1681548110610bb957fe5b9060005260206000200160009054906101000a900473ffffffffffffffffffffffffffffffffffffffff1673ffffffffffffffffffffffffffffffffffffffff1673ffffffffffffffffffffffffffffffffffffffff16815260200190815260200160002060009054906101000a900467ffffffffffffffff16828267ffffffffffffffff1681518110610c4957fe5b602002602001019067ffffffffffffffff16908167ffffffffffffffff16815250508080600101915050610b87565b5060058181805480602002602001604051908101604052809291908181526020018280548015610cfd57602002820191906000526020600020905b8160009054906101000a900473ffffffffffffffffffffffffffffffffffffffff1673ffffffffffffffffffffffffffffffffffffffff1681526020019060010190808311610cb3575b5050505050915092509250509091565b7f65e06b3884a88e13243953e5160aec7a836e4cc7abc0762f84c66d6b918efe7f60405180806020018281038252601f8152602001807f736f6d657468696e672068617070656e6564207265676973746572203032200081525060200191505060405180910390a160016000808373ffffffffffffffffffffffffffffffffffffffff1673ffffffffffffffffffffffffffffffffffffffff16815260200190815260200160002060006101000a81548167ffffffffffffffff021916908360070b67ffffffffffffffff16021790555050565b7f65e06b3884a88e13243953e5160aec7a836e4cc7abc0762f84c66d6b918efe7f60405180806020018281038252601f8152602001807f736f6d657468696e672068617070656e65642057686974654c6973742030320081525060200191505060405180910390a160016000803373ffffffffffffffffffffffffffffffffffffffff1673ffffffffffffffffffffffffffffffffffffffff16815260200190815260200160002060009054906101000a900460070b60070b14610f0d576040517f08c379a000000000000000000000000000000000000000000000000000000000815260040180806020018281038252601d8152602001807f496e766f6b657220617265206e6f7420696e207768697465206c69737400000081525060200191505060405180910390fd5b7f65e06b3884a88e13243953e5160aec7a836e4cc7abc0762f84c66d6b918efe7f6040518080602001828103825260298152602001806128326029913960400191505060405180910390a1600660008773ffffffffffffffffffffffffffffffffffffffff1673ffffffffffffffffffffffffffffffffffffffff168152602001908152602001600020600081819054906101000a900467ffffffffffffffff168092919060010191906101000a81548167ffffffffffffffff021916908367ffffffffffffffff160217905550506001600660008873ffffffffffffffffffffffffffffffffffffffff1673ffffffffffffffffffffffffffffffffffffffff16815260200190815260200160002060009054906101000a900467ffffffffffffffff1667ffffffffffffffff1614156110a95760038690806001815401808255809150509060018203906000526020600020016000909192909190916101000a81548173ffffffffffffffffffffffffffffffffffffffff021916908373ffffffffffffffffffffffffffffffffffffffff160217905550505b43600760008873ffffffffffffffffffffffffffffffffffffffff1673ffffffffffffffffffffffffffffffffffffffff1681526020019081526020016000206000600660008a73ffffffffffffffffffffffffffffffffffffffff1673ffffffffffffffffffffffffffffffffffffffff16815260200190815260200160002060009054906101000a900467ffffffffffffffff1667ffffffffffffffff1667ffffffffffffffff168152602001908152602001600020819055507fdde0d454bdf1d147a0842ac1864ecc133506af30efc60d34dabc910267c4e40a600660008873ffffffffffffffffffffffffffffffffffffffff1673ffffffffffffffffffffffffffffffffffffffff16815260200190815260200160002060009054906101000a900467ffffffffffffffff1687338888888888604051808967ffffffffffffffff1667ffffffffffffffff1681526020018873ffffffffffffffffffffffffffffffffffffffff1673ffffffffffffffffffffffffffffffffffffffff1681526020018773ffffffffffffffffffffffffffffffffffffffff1673ffffffffffffffffffffffffffffffffffffffff168152602001806020018060200180602001806020018060200186810386528b818151815260200191508051906020019080838360005b838110156112af578082015181840152602081019050611294565b50505050905090810190601f1680156112dc5780820380516001836020036101000a031916815260200191505b5086810385528a818151815260200191508051906020019080838360005b838110156113155780820151818401526020810190506112fa565b50505050905090810190601f1680156113425780820380516001836020036101000a031916815260200191505b50868103845289818151815260200191508051906020019080838360005b8381101561137b578082015181840152602081019050611360565b50505050905090810190601f1680156113a85780820380516001836020036101000a031916815260200191505b50868103835288818151815260200191508051906020019080838360005b838110156113e15780820151818401526020810190506113c6565b50505050905090810190601f16801561140e5780820380516001836020036101000a031916815260200191505b50868103825287818151815260200191508051906020019080838360005b8381101561144757808201518184015260208101905061142c565b50505050905090810190601f1680156114745780820380516001836020036101000a031916815260200191505b509d505050505050505050505050505060405180910390a1505050505050565b60608060606004805490506040519080825280602002602001820160405280156114cd5781602001602082028038833980820191505090505b50905060008090505b6004805490508110156115a95760086000600483815481106114f457fe5b9060005260206000200160009054906101000a900473ffffffffffffffffffffffffffffffffffffffff1673ffffffffffffffffffffffffffffffffffffffff1673ffffffffffffffffffffffffffffffffffffffff16815260200190815260200160002060009054906101000a900467ffffffffffffffff1682828151811061157a57fe5b602002602001019067ffffffffffffffff16908167ffffffffffffffff168152505080806001019150506114d6565b506004818180548060200260200160405190810160405280929190818152602001828054801561162e57602002820191906000526020600020905b8160009054906101000a900473ffffffffffffffffffffffffffffffffffffffff1673ffffffffffffffffffffffffffffffffffffffff16815260200190600101908083116115e4575b5050505050915092509250509091565b7f65e06b3884a88e13243953e5160aec7a836e4cc7abc0762f84c66d6b918efe7f6040518080602001828103825260308152602001806128026030913960400191505060405180910390a161169584848484611ed6565b50505050565b7f65e06b3884a88e13243953e5160aec7a836e4cc7abc0762f84c66d6b918efe7f6040518080602001828103825260208152602001807f736f6d657468696e672068617070656e656420696e697469616c697a6520303281525060200191505060405180910390a160008090505b6004805490508110156117c1576000600860006004848154811061172957fe5b9060005260206000200160009054906101000a900473ffffffffffffffffffffffffffffffffffffffff1673ffffffffffffffffffffffffffffffffffffffff1673ffffffffffffffffffffffffffffffffffffffff16815260200190815260200160002060006101000a81548167ffffffffffffffff021916908367ffffffffffffffff1602179055508080600101915050611709565b5060008090505b60038054905081101561188057600060066000600384815481106117e857fe5b9060005260206000200160009054906101000a900473ffffffffffffffffffffffffffffffffffffffff1673ffffffffffffffffffffffffffffffffffffffff1673ffffffffffffffffffffffffffffffffffffffff16815260200190815260200160002060006101000a81548167ffffffffffffffff021916908367ffffffffffffffff16021790555080806001019150506117c8565b5060008090505b60058054905081101561193f576000600a6000600584815481106118a757fe5b9060005260206000200160009054906101000a900473ffffffffffffffffffffffffffffffffffffffff1673ffffffffffffffffffffffffffffffffffffffff1673ffffffffffffffffffffffffffffffffffffffff16815260200190815260200160002060006101000a81548167ffffffffffffffff021916908367ffffffffffffffff1602179055508080600101915050611887565b5060008090505b600180549050811015611a005760008060006001848154811061196557fe5b9060005260206000200160009054906101000a900473ffffffffffffffffffffffffffffffffffffffff1673ffffffffffffffffffffffffffffffffffffffff1673ffffffffffffffffffffffffffffffffffffffff16815260200190815260200160002060006101000a81548167ffffffffffffffff021916908360070b67ffffffffffffffff1602179055508080600101915050611946565b5060036000611a0f919061273b565b60046000611a1d919061273b565b60056000611a2b919061273b565b565b6000600960008473ffffffffffffffffffffffffffffffffffffffff1673ffffffffffffffffffffffffffffffffffffffff16815260200190815260200160002060008367ffffffffffffffff1667ffffffffffffffff16815260200190815260200160002054905092915050565b6000600760008473ffffffffffffffffffffffffffffffffffffffff1673ffffffffffffffffffffffffffffffffffffffff16815260200190815260200160002060008367ffffffffffffffff1667ffffffffffffffff16815260200190815260200160002054905092915050565b60007f65e06b3884a88e13243953e5160aec7a836e4cc7abc0762f84c66d6b918efe7f60405180806020018281038252601b8152602001807f736f6d657468696e672068617070656e6564206175646974203032000000000081525060200191505060405180910390a17fffffffffffffffffffffffffffffffffffffffffffffffffffffffffffffffff8260070b14158015611bac575060008260070b14155b8015611bbc575060018260070b14155b15611bca5760009050611caa565b816000808573ffffffffffffffffffffffffffffffffffffffff1673ffffffffffffffffffffffffffffffffffffffff16815260200190815260200160002060006101000a81548167ffffffffffffffff021916908360070b67ffffffffffffffff16021790555060018260070b1415611ca55760018390806001815401808255809150509060018203906000526020600020016000909192909190916101000a81548173ffffffffffffffffffffffffffffffffffffffff021916908373ffffffffffffffffffffffffffffffffffffffff160217905550505b600190505b92915050565b6060806060600380549050604051908082528060200260200182016040528015611ce95781602001602082028038833980820191505090505b50905060008090505b6003805490508167ffffffffffffffff161015611de3576006600060038367ffffffffffffffff1681548110611d2457fe5b9060005260206000200160009054906101000a900473ffffffffffffffffffffffffffffffffffffffff1673ffffffffffffffffffffffffffffffffffffffff1673ffffffffffffffffffffffffffffffffffffffff16815260200190815260200160002060009054906101000a900467ffffffffffffffff16828267ffffffffffffffff1681518110611db457fe5b602002602001019067ffffffffffffffff16908167ffffffffffffffff16815250508080600101915050611cf2565b5060038181805480602002602001604051908101604052809291908181526020018280548015611e6857602002820191906000526020600020905b8160009054906101000a900473ffffffffffffffffffffffffffffffffffffffff1673ffffffffffffffffffffffffffffffffffffffff1681526020019060010190808311611e1e575b5050505050915092509250509091565b7f65e06b3884a88e13243953e5160aec7a836e4cc7abc0762f84c66d6b918efe7f60405180806020018281038252602681526020018061285b6026913960400191505060405180910390a16001600d60008282540192505081905550565b7f0796536e3e541c9658d431fac3f19b36d10b1bfecec33a82a3eb949832d6c627426040518080602001838152602001828103825260138152602001807f696e766f6b65496e6465785570646174653032000000000000000000000000008152506020019250505060405180910390a181156120e3578267ffffffffffffffff166001600860008773ffffffffffffffffffffffffffffffffffffffff1673ffffffffffffffffffffffffffffffffffffffff16815260200190815260200160002060009054906101000a900467ffffffffffffffff160167ffffffffffffffff1614611fc257600080fd5b611fcb8461227d565b60405160200180600001905060405160208183030381529060405280519060200120816040516020018082805190602001908083835b602083106120245780518252602082019150602081019050602083039250612001565b6001836020036101000a03801982511681845116808217855250505050505090500191505060405160208183030381529060405280519060200120146120de5780600b60008673ffffffffffffffffffffffffffffffffffffffff1673ffffffffffffffffffffffffffffffffffffffff16815260200190815260200160002060008567ffffffffffffffff1667ffffffffffffffff16815260200190815260200160002090805190602001906120dc92919061275c565b505b612277565b8267ffffffffffffffff166001600a60008773ffffffffffffffffffffffffffffffffffffffff1673ffffffffffffffffffffffffffffffffffffffff16815260200190815260200160002060009054906101000a900467ffffffffffffffff160167ffffffffffffffff161461215957600080fd5b61216384846124fd565b60405160200180600001905060405160208183030381529060405280519060200120816040516020018082805190602001908083835b602083106121bc5780518252602082019150602081019050602083039250612199565b6001836020036101000a03801982511681845116808217855250505050505090500191505060405160208183030381529060405280519060200120146122765780600c60008673ffffffffffffffffffffffffffffffffffffffff1673ffffffffffffffffffffffffffffffffffffffff16815260200190815260200160002060008567ffffffffffffffff1667ffffffffffffffff168152602001908152602001600020908051906020019061227492919061275c565b505b5b50505050565b7f0796536e3e541c9658d431fac3f19b36d10b1bfecec33a82a3eb949832d6c6274260405180806020018381526020018281038252600f8152602001807f6d61726b496e436f756e746572303200000000000000000000000000000000008152506020019250505060405180910390a1600860008273ffffffffffffffffffffffffffffffffffffffff1673ffffffffffffffffffffffffffffffffffffffff168152602001908152602001600020600081819054906101000a900467ffffffffffffffff168092919060010191906101000a81548167ffffffffffffffff021916908367ffffffffffffffff160217905550506001600860008373ffffffffffffffffffffffffffffffffffffffff1673ffffffffffffffffffffffffffffffffffffffff16815260200190815260200160002060009054906101000a900467ffffffffffffffff1667ffffffffffffffff16141561243e5760048190806001815401808255809150509060018203906000526020600020016000909192909190916101000a81548173ffffffffffffffffffffffffffffffffffffffff021916908373ffffffffffffffffffffffffffffffffffffffff160217905550505b43600960008373ffffffffffffffffffffffffffffffffffffffff1673ffffffffffffffffffffffffffffffffffffffff1681526020019081526020016000206000600860008573ffffffffffffffffffffffffffffffffffffffff1673ffffffffffffffffffffffffffffffffffffffff16815260200190815260200160002060009054906101000a900467ffffffffffffffff1667ffffffffffffffff1667ffffffffffffffff1681526020019081526020016000208190555050565b7f65e06b3884a88e13243953e5160aec7a836e4cc7abc0762f84c66d6b918efe7f6040518080602001828103825260298152602001806128816029913960400191505060405180910390a16000600a60008473ffffffffffffffffffffffffffffffffffffffff1673ffffffffffffffffffffffffffffffffffffffff16815260200190815260200160002060009054906101000a900467ffffffffffffffff1667ffffffffffffffff1614156126155760058290806001815401808255809150509060018203906000526020600020016000909192909190916101000a81548173ffffffffffffffffffffffffffffffffffffffff021916908373ffffffffffffffffffffffffffffffffffffffff160217905550505b80600a60008473ffffffffffffffffffffffffffffffffffffffff1673ffffffffffffffffffffffffffffffffffffffff16815260200190815260200160002060006101000a81548167ffffffffffffffff021916908367ffffffffffffffff16021790555043600960008473ffffffffffffffffffffffffffffffffffffffff1673ffffffffffffffffffffffffffffffffffffffff1681526020019081526020016000206000600a60008673ffffffffffffffffffffffffffffffffffffffff1673ffffffffffffffffffffffffffffffffffffffff16815260200190815260200160002060009054906101000a900467ffffffffffffffff1667ffffffffffffffff1667ffffffffffffffff168152602001908152602001600020819055505050565b508054600082559060005260206000209081019061275991906127dc565b50565b828054600181600116156101000203166002900490600052602060002090601f016020900481019282601f1061279d57805160ff19168380011785556127cb565b828001600101855582156127cb579182015b828111156127ca5782518255916020019190600101906127af565b5b5090506127d891906127dc565b5090565b6127fe91905b808211156127fa5760008160009055506001016127e2565b5090565b9056fe736f6d657468696e672068617070656e656420696e766f6b65496e646578557064617465576974684572726f72203032736f6d657468696e672068617070656e656420656d6974496e746572636861696e4576656e7420303274686520696e6372656d656e7428292066756e6374696f6e207761732063616c6c6564203032736f6d657468696e672068617070656e6564206d61726b43616c6c6261636b436f756e746572203032a165627a7a72305820cac173081688a4c96a645794f612c2c58e284658a522daad33be4b82951f79f90029",
  "source": "pragma solidity >=0.5.6;\n\ncontract Broker {\n    // Only the contract in the whitelist can invoke the Broker for interchain operations.\n    mapping(address => int64) whiteList;\n    address[] contracts;\n    address[] admins;\n\n    event throwEvent(\n        uint64 index,\n        address to,\n        address fid,\n        string tid,\n        string funcs,\n        string args,\n        string argscb,\n        string argsrb\n    );\n    event LogInterchainData(bool status, string data);\n    event LogInterchainStatus(bool status);\n\n    address[] outChains;\n    address[] inChains;\n    address[] callbackChains;\n\n    mapping(address => uint64) outCounter; // mapping from contract address to out event last index\n    mapping(address => mapping(uint64 => uint256)) outMessages;\n    mapping(address => uint64) inCounter;\n    mapping(address => mapping(uint64 => uint256)) inMessages;\n    mapping(address => uint64) callbackCounter;\n    mapping(address => mapping(uint64 => string)) invokeError;\n    mapping(address => mapping(uint64 => string)) callbackError;\n\n    //Self implemented event for seeing what functions get called\n    event Logger(string message);\n\n    event Timer(\n        string where,\n        uint256 time\n    );\n\n    uint256 public count;\n\n    //Simple functions to check that we get contact with the script\n    function increment() external {\n        emit Logger(\"the increment() function was called 02\");\n        count += 1;\n    }\n\n    // Authority control. Contracts need to be registered.\n    modifier onlyWhiteList() {\n        emit Logger(\"something happened WhiteList 02\");\n        require(whiteList[msg.sender] == 1, \"Invoker are not in white list\");\n        _;\n    }\n\n    // Authority control. Only the administrator can audit the contract\n    modifier onlyAdmin() {\n        emit Logger(\"something happened only Admin 02\");\n        bool flag = false;\n        for (uint256 i = 0; i < admins.length; i++) {\n            if (msg.sender == admins[i]) {\n                flag = true;\n            }\n        }\n        if (flag) {\n            revert();\n        }\n        _;\n    }\n\n    function initialize() public {\n        emit Logger(\"something happened initialize 02\");\n        for (uint256 i = 0; i < inChains.length; i++) {\n            inCounter[inChains[i]] = 0;\n        }\n        for (uint256 i = 0; i < outChains.length; i++) {\n            outCounter[outChains[i]] = 0;\n        }\n        for (uint256 i = 0; i < callbackChains.length; i++) {\n            callbackCounter[callbackChains[i]] = 0;\n        }\n        for (uint256 i = 0; i < contracts.length; i++) {\n            whiteList[contracts[i]] = 0;\n        }\n        delete outChains;\n        delete inChains;\n        delete callbackChains;\n    }\n\n    // 0: auditting  1: approved  -1: refused\n    function register(address addr) public {\n        emit Logger(\"something happened register 02 \");\n        whiteList[addr] = 1; //set register value to 1, so i can register data_swapper and transfer\n    }\n\n    function audit(address addr, int64 status) public returns (bool) {\n        emit Logger(\"something happened audit 02\");\n        if (status != -1 && status != 0 && status != 1) {\n            return false;\n        }\n        whiteList[addr] = status;\n        // Only approved contracts can be recorded\n        if (status == 1) {\n            contracts.push(addr);\n        }\n        return true;\n    }\n\n    function invokeInterchain(\n        address srcChainID,\n        uint64 index,\n        address destAddr,\n        bool req,\n        bytes calldata bizCallData\n    ) external payable {\n        emit Timer(\"invokeInterchain02\", block.timestamp);\n        require(whiteList[destAddr] == 1);\n        invokeIndexUpdate(srcChainID, index, req, \"\");\n\n        assembly {\n            let ptr := mload(0x40)\n\n            // bizCallDatacalldata\n            calldatacopy(ptr, 132, 32)\n            let off := mload(ptr)\n\n            // bizCallData\n            calldatacopy(ptr, add(4, off), 32)\n            let datasize := mload(ptr)\n\n            // bizCallDatacopyptr\n            calldatacopy(ptr, add(36, off), datasize)\n\n            // \n            let result := call(\n                gas(),\n                destAddr,\n                callvalue(),\n                ptr,\n                datasize,\n                0,\n                0\n            )\n            let size := returndatasize()\n            returndatacopy(ptr, 0, size)\n\n            switch result\n            case 0 {\n                revert(ptr, size)\n            }\n            default {\n                log0(ptr, size)\n                return(ptr, size)\n            }\n        }\n    }\n\n    function invokeIndexUpdate(\n        address srcChainID,\n        uint64 index,\n        bool req,\n        string memory err\n    ) private {\n        emit Timer(\"invokeIndexUpdate02\", block.timestamp);\n\n        if (req) {\n            require(inCounter[srcChainID] + 1 == index);\n            markInCounter(srcChainID);\n            if (\n                keccak256(abi.encodePacked(err)) !=\n                keccak256(abi.encodePacked(\"\"))\n            ) {\n                invokeError[srcChainID][index] = err;\n            }\n        } else {\n            // invoke callback or rollback\n            require(callbackCounter[srcChainID] + 1 == index);\n            markCallbackCounter(srcChainID, index);\n            if (\n                keccak256(abi.encodePacked(err)) !=\n                keccak256(abi.encodePacked(\"\"))\n            ) {\n                callbackError[srcChainID][index] = err;\n            }\n        }\n    }\n\n    function invokeIndexUpdateWithError(\n        address srcChainID,\n        uint64 index,\n        bool req,\n        string memory err\n    ) public {\n        emit Logger(\"something happened invokeIndexUpdateWithError 02\");\n        invokeIndexUpdate(srcChainID, index, req, err);\n    }\n\n    function emitInterchainEvent(\n        address destChainID,\n        string memory destAddr,\n        string memory funcs,\n        string memory args,\n        string memory argscb,\n        string memory argsrb\n    ) public onlyWhiteList {\n        emit Logger(\"something happened emitInterchainEvent 02\");\n        // Record the order of interchain contract which has been started.\n        outCounter[destChainID]++;\n        if (outCounter[destChainID] == 1) {\n            outChains.push(destChainID);\n        }\n        outMessages[destChainID][outCounter[destChainID]] = block.number;\n\n        // Throw interchain event for listening of plugin.\n        emit throwEvent(\n            outCounter[destChainID],\n            destChainID,\n            msg.sender,\n            destAddr,\n            funcs,\n            args,\n            argscb,\n            argsrb\n        );\n    }\n\n    // The helper functions that help document Meta information.\n    function markCallbackCounter(address from, uint64 index) private {\n        emit Logger(\"something happened markCallbackCounter 02\");\n        if (callbackCounter[from] == 0) {\n            callbackChains.push(from);\n        }\n        callbackCounter[from] = index;\n        inMessages[from][callbackCounter[from]] = block.number;\n    }\n\n    function markInCounter(address from) private {\n        emit Timer(\"markInCounter02\", block.timestamp);\n        inCounter[from]++;\n        if (inCounter[from] == 1) {\n            inChains.push(from);\n        }\n\n        inMessages[from][inCounter[from]] = block.number;\n    }\n\n    // The helper functions that help plugin query.\n    function getOuterMeta()\n        public\n        view\n        returns (address[] memory, uint64[] memory)\n    {\n        uint64[] memory indices = new uint64[](outChains.length);\n        for (uint64 i = 0; i < outChains.length; i++) {\n            indices[i] = outCounter[outChains[i]];\n        }\n\n        return (outChains, indices);\n    }\n\n    function getOutMessage(address to, uint64 idx)\n        public\n        view\n        returns (uint256)\n    {\n        return outMessages[to][idx];\n    }\n\n    function getInMessage(address from, uint64 idx)\n        public\n        view\n        returns (uint256)\n    {\n        return inMessages[from][idx];\n    }\n\n    function getInnerMeta()\n        public\n        view\n        returns (address[] memory, uint64[] memory)\n    {\n        uint64[] memory indices = new uint64[](inChains.length);\n        for (uint256 i = 0; i < inChains.length; i++) {\n            indices[i] = inCounter[inChains[i]];\n        }\n\n        return (inChains, indices);\n    }\n\n    function getCallbackMeta()\n        public\n        view\n        returns (address[] memory, uint64[] memory)\n    {\n        uint64[] memory indices = new uint64[](callbackChains.length);\n        for (uint64 i = 0; i < callbackChains.length; i++) {\n            indices[i] = callbackCounter[callbackChains[i]];\n        }\n\n        return (callbackChains, indices);\n    }\n\n    function _indexOf(\n        string memory _base,\n        string memory _value,\n        uint256 _offset\n    ) internal pure returns (int256) {\n        bytes memory _baseBytes = bytes(_base);\n        bytes memory _valueBytes = bytes(_value);\n\n        assert(_valueBytes.length == 1);\n\n        for (uint256 i = _offset; i < _baseBytes.length; i++) {\n            if (_baseBytes[i] == _valueBytes[0]) {\n                return int256(i);\n            }\n        }\n\n        return -1;\n    }\n}\n",
  "sourcePath": "/home/hallvard/Masters-Programing/EtherBit/Scripts/Ethereum02/contracts/broker.sol",
  "compiler": {
    "name": "solc",
    "version": "0.5.6+commit.b259423e.Emscripten.clang"
  },
  "schemaVersion": "3.4.5",
  "updatedAt": "2022-04-26T21:25:30.486Z",
  "networkType": "ethereum",
  "devdoc": {
    "methods": {}
  },
  "userdoc": {
    "methods": {}
  }
}