{
  "contractName": "DataSwapper",
  "abi": [
    {
      "anonymous": false,
      "inputs": [
        {
          "indexed": false,
          "name": "message",
          "type": "string"
        }
      ],
      "name": "Logger",
      "type": "event"
    },
    {
      "anonymous": false,
      "inputs": [
        {
          "indexed": false,
          "name": "where",
          "type": "string"
        },
        {
          "indexed": false,
          "name": "time",
          "type": "uint256"
        }
      ],
      "name": "Timer",
      "type": "event"
    },
    {
      "constant": false,
      "inputs": [
        {
          "name": "key",
          "type": "string"
        }
      ],
      "name": "getData",
      "outputs": [
        {
          "name": "",
          "type": "string"
        }
      ],
      "payable": false,
      "stateMutability": "nonpayable",
      "type": "function"
    },
    {
      "constant": false,
      "inputs": [
        {
          "name": "destChainID",
          "type": "address"
        },
        {
          "name": "destAddr",
          "type": "string"
        },
        {
          "name": "key",
          "type": "string"
        }
      ],
      "name": "get",
      "outputs": [],
      "payable": false,
      "stateMutability": "nonpayable",
      "type": "function"
    },
    {
      "constant": false,
      "inputs": [
        {
          "name": "key",
          "type": "string"
        },
        {
          "name": "value",
          "type": "string"
        }
      ],
      "name": "set",
      "outputs": [],
      "payable": false,
      "stateMutability": "nonpayable",
      "type": "function"
    },
    {
      "constant": false,
      "inputs": [
        {
          "name": "key",
          "type": "string"
        },
        {
          "name": "value",
          "type": "string"
        }
      ],
      "name": "interchainSet",
      "outputs": [],
      "payable": false,
      "stateMutability": "nonpayable",
      "type": "function"
    },
    {
      "constant": false,
      "inputs": [
        {
          "name": "key",
          "type": "string"
        }
      ],
      "name": "interchainGet",
      "outputs": [
        {
          "name": "",
          "type": "bool"
        },
        {
          "name": "",
          "type": "string"
        }
      ],
      "payable": false,
      "stateMutability": "nonpayable",
      "type": "function"
    }
  ],
  "bytecode": "0x6080604052732c25595df2657e088bc2bb40963d599ebb9aad70600160006101000a81548173ffffffffffffffffffffffffffffffffffffffff021916908373ffffffffffffffffffffffffffffffffffffffff160217905550600160009054906101000a900473ffffffffffffffffffffffffffffffffffffffff16600260006101000a81548173ffffffffffffffffffffffffffffffffffffffff021916908373ffffffffffffffffffffffffffffffffffffffff1602179055503480156100c857600080fd5b50610fe5806100d86000396000f3fe608060405234801561001057600080fd5b50600436106100575760003560e01c80636079cf2a1461005c57806393c00ab01461019b57806399489c21146102ed578063ae55c8881461045f578063e942b51614610593575b600080fd5b6101156004803603602081101561007257600080fd5b810190808035906020019064010000000081111561008f57600080fd5b8201836020820111156100a157600080fd5b803590602001918460018302840111640100000000831117156100c357600080fd5b91908080601f016020809104026020016040519081016040528093929190818152602001838380828437600081840152601f19601f8201169050808301925050505050505091929192905050506106e5565b604051808315151515815260200180602001828103825283818151815260200191508051906020019080838360005b8381101561015f578082015181840152602081019050610144565b50505050905090810190601f16801561018c5780820380516001836020036101000a031916815260200191505b50935050505060405180910390f35b6102eb600480360360408110156101b157600080fd5b81019080803590602001906401000000008111156101ce57600080fd5b8201836020820111156101e057600080fd5b8035906020019184600183028401116401000000008311171561020257600080fd5b91908080601f016020809104026020016040519081016040528093929190818152602001838380828437600081840152601f19601f8201169050808301925050505050505091929192908035906020019064010000000081111561026557600080fd5b82018360208201111561027757600080fd5b8035906020019184600183028401116401000000008311171561029957600080fd5b91908080601f016020809104026020016040519081016040528093929190818152602001838380828437600081840152601f19601f820116905080830192505050505050509192919290505050610924565b005b61045d6004803603606081101561030357600080fd5b81019080803573ffffffffffffffffffffffffffffffffffffffff1690602001909291908035906020019064010000000081111561034057600080fd5b82018360208201111561035257600080fd5b8035906020019184600183028401116401000000008311171561037457600080fd5b91908080601f016020809104026020016040519081016040528093929190818152602001838380828437600081840152601f19601f820116905080830192505050505050509192919290803590602001906401000000008111156103d757600080fd5b8201836020820111156103e957600080fd5b8035906020019184600183028401116401000000008311171561040b57600080fd5b91908080601f016020809104026020016040519081016040528093929190818152602001838380828437600081840152601f19601f820116905080830192505050505050509192919290505050610a5d565b005b6105186004803603602081101561047557600080fd5b810190808035906020019064010000000081111561049257600080fd5b8201836020820111156104a457600080fd5b803590602001918460018302840111640100000000831117156104c657600080fd5b91908080601f016020809104026020016040519081016040528093929190818152602001838380828437600081840152601f19601f820116905080830192505050505050509192919290505050610caf565b6040518080602001828103825283818151815260200191508051906020019080838360005b8381101561055857808201518184015260208101905061053d565b50505050905090810190601f1680156105855780820380516001836020036101000a031916815260200191505b509250505060405180910390f35b6106e3600480360360408110156105a957600080fd5b81019080803590602001906401000000008111156105c657600080fd5b8201836020820111156105d857600080fd5b803590602001918460018302840111640100000000831117156105fa57600080fd5b91908080601f016020809104026020016040519081016040528093929190818152602001838380828437600081840152601f19601f8201169050808301925050505050505091929192908035906020019064010000000081111561065d57600080fd5b82018360208201111561066f57600080fd5b8035906020019184600183028401116401000000008311171561069157600080fd5b91908080601f016020809104026020016040519081016040528093929190818152602001838380828437600081840152601f19601f820116905080830192505050505050509192919290505050610e2a565b005b60006060600160009054906101000a900473ffffffffffffffffffffffffffffffffffffffff1673ffffffffffffffffffffffffffffffffffffffff163373ffffffffffffffffffffffffffffffffffffffff16146107ac576040517f08c379a000000000000000000000000000000000000000000000000000000000815260040180806020018281038252601a8152602001807f496e766f6b657220617265206e6f74207468652042726f6b657200000000000081525060200191505060405180910390fd5b7f65e06b3884a88e13243953e5160aec7a836e4cc7abc0762f84c66d6b918efe7f60405180806020018281038252601b8152602001807f57652067657420696e746f20696e746572636861696e4765743032000000000081525060200191505060405180910390a160016000846040518082805190602001908083835b6020831061084c5780518252602082019150602081019050602083039250610829565b6001836020036101000a0380198251168184511680821785525050505050509050019150509081526020016040518091039020808054600181600116156101000203166002900480601f0160208091040260200160405190810160405280929190818152602001828054600181600116156101000203166002900480156109145780601f106108e957610100808354040283529160200191610914565b820191906000526020600020905b8154815290600101906020018083116108f757829003601f168201915b5050505050905091509150915091565b600160009054906101000a900473ffffffffffffffffffffffffffffffffffffffff1673ffffffffffffffffffffffffffffffffffffffff163373ffffffffffffffffffffffffffffffffffffffff16146109e7576040517f08c379a000000000000000000000000000000000000000000000000000000000815260040180806020018281038252601a8152602001807f496e766f6b657220617265206e6f74207468652042726f6b657200000000000081525060200191505060405180910390fd5b7f65e06b3884a88e13243953e5160aec7a836e4cc7abc0762f84c66d6b918efe7f60405180806020018281038252601b8152602001807f57652067657420696e746f20696e746572636861696e5365743032000000000081525060200191505060405180910390a1610a598282610e2a565b5050565b600260009054906101000a900473ffffffffffffffffffffffffffffffffffffffff1673ffffffffffffffffffffffffffffffffffffffff166350b0b902848484856040518563ffffffff1660e01b8152600401808573ffffffffffffffffffffffffffffffffffffffff1673ffffffffffffffffffffffffffffffffffffffff1681526020018060200180602001806020018060200180602001868103865289818151815260200191508051906020019080838360005b83811015610b30578082015181840152602081019050610b15565b50505050905090810190601f168015610b5d5780820380516001836020036101000a031916815260200191505b508681038552601c8152602001807f696e746572636861696e4765742c696e746572636861696e5365742c00000000815250602001868103845288818151815260200191508051906020019080838360005b83811015610bca578082015181840152602081019050610baf565b50505050905090810190601f168015610bf75780820380516001836020036101000a031916815260200191505b50868103835287818151815260200191508051906020019080838360005b83811015610c30578082015181840152602081019050610c15565b50505050905090810190601f168015610c5d5780820380516001836020036101000a031916815260200191505b508681038252600081526020016020019950505050505050505050600060405180830381600087803b158015610c9257600080fd5b505af1158015610ca6573d6000803e3d6000fd5b50505050505050565b60607f0796536e3e541c9658d431fac3f19b36d10b1bfecec33a82a3eb949832d6c627426040518080602001838152602001828103825260098152602001807f67657444617461303200000000000000000000000000000000000000000000008152506020019250505060405180910390a16000826040518082805190602001908083835b60208310610d575780518252602082019150602081019050602083039250610d34565b6001836020036101000a03801982511681845116808217855250505050505090500191505090815260200160405180910390208054600181600116156101000203166002900480601f016020809104026020016040519081016040528092919081815260200182805460018160011615610100020316600290048015610e1e5780601f10610df357610100808354040283529160200191610e1e565b820191906000526020600020905b815481529060010190602001808311610e0157829003601f168201915b50505050509050919050565b7f65e06b3884a88e13243953e5160aec7a836e4cc7abc0762f84c66d6b918efe7f6040518080602001828103825260118152602001807f57652067657420696e746f20736574303200000000000000000000000000000081525060200191505060405180910390a1806000836040518082805190602001908083835b60208310610ec95780518252602082019150602081019050602083039250610ea6565b6001836020036101000a03801982511681845116808217855250505050505090500191505090815260200160405180910390209080519060200190610f0f929190610f14565b505050565b828054600181600116156101000203166002900490600052602060002090601f016020900481019282601f10610f5557805160ff1916838001178555610f83565b82800160010185558215610f83579182015b82811115610f82578251825591602001919060010190610f67565b5b509050610f909190610f94565b5090565b610fb691905b80821115610fb2576000816000905550600101610f9a565b5090565b9056fea165627a7a72305820af0de6238f9d1c5e28dc0fab4378e445a36ef0758367a3277fe396554f82d5200029",
  "source": "pragma solidity >=0.5.6;\n\ncontract DataSwapper {\n    mapping(string => string) dataM; // map for accounts\n    // change the address of Broker accordingly\n    address BrokerAddr = 0x2C25595DF2657E088bC2bB40963d599ebB9Aad70;\n    BrokerSwapper broker = BrokerSwapper(BrokerAddr);\n\n    event Logger(string message);\n\n     event Timer(\n        string where,\n        uint256 time\n    );\n\n    // AccessControl\n    modifier onlyBroker() {\n        require(msg.sender == BrokerAddr, \"Invoker are not the Broker\");\n        _;\n    }\n\n    // contract for data exchange\n    function getData(string memory key) public returns (string memory) {\n        emit Timer(\"getData02\", block.timestamp);\n        return dataM[key];\n    }\n\n    function get(\n        address destChainID,\n        string memory destAddr,\n        string memory key\n    ) public {\n        broker.emitInterchainEvent(\n            destChainID,\n            destAddr,\n            \"interchainGet,interchainSet,\",\n            key,\n            key,\n            \"\"\n        );\n    }\n\n    function set(string memory key, string memory value) public {\n        emit Logger(\"We get into set02\");\n        dataM[key] = value;\n    }\n\n    function interchainSet(string memory key, string memory value)\n        public\n        onlyBroker\n    {\n        emit Logger(\"We get into interchainSet02\");\n        set(key, value);\n    }\n\n    function interchainGet(string memory key)\n        public\n        onlyBroker\n        returns (bool, string memory)\n    {\n        emit Logger(\"We get into interchainGet02\");\n        return (true, dataM[key]);\n    }\n}\n\ncontract BrokerSwapper {\n    function emitInterchainEvent(\n        address destChainID,\n        string memory destAddr,\n        string memory funcs,\n        string memory args,\n        string memory argscb,\n        string memory argsrb\n    ) public;\n}\n",
  "sourcePath": "/home/hallvard/Masters-Programing/EtherBit/Scripts/Ethereum02/contracts/data_swapper.sol",
  "compiler": {
    "name": "solc",
    "version": "0.5.6+commit.b259423e.Emscripten.clang"
  },
  "schemaVersion": "3.4.5",
  "updatedAt": "2022-04-26T21:26:59.476Z",
  "networkType": "ethereum",
  "devdoc": {
    "methods": {}
  },
  "userdoc": {
    "methods": {}
  }
}