{
  "contractName": "Transfer",
  "abi": [
    {
      "constant": false,
      "inputs": [
        {
          "name": "destChainID",
          "type": "address"
        },
        {
          "name": "destAddr",
          "type": "string"
        },
        {
          "name": "sender",
          "type": "string"
        },
        {
          "name": "receiver",
          "type": "string"
        },
        {
          "name": "amount",
          "type": "string"
        }
      ],
      "name": "transfer",
      "outputs": [],
      "payable": false,
      "stateMutability": "nonpayable",
      "type": "function"
    },
    {
      "constant": false,
      "inputs": [
        {
          "name": "sender",
          "type": "string"
        },
        {
          "name": "val",
          "type": "uint64"
        }
      ],
      "name": "interchainRollback",
      "outputs": [],
      "payable": false,
      "stateMutability": "nonpayable",
      "type": "function"
    },
    {
      "constant": false,
      "inputs": [
        {
          "name": "sender",
          "type": "string"
        },
        {
          "name": "receiver",
          "type": "string"
        },
        {
          "name": "val",
          "type": "uint64"
        }
      ],
      "name": "interchainCharge",
      "outputs": [
        {
          "name": "",
          "type": "bool"
        }
      ],
      "payable": false,
      "stateMutability": "nonpayable",
      "type": "function"
    },
    {
      "constant": true,
      "inputs": [
        {
          "name": "id",
          "type": "string"
        }
      ],
      "name": "getBalance",
      "outputs": [
        {
          "name": "",
          "type": "uint64"
        }
      ],
      "payable": false,
      "stateMutability": "view",
      "type": "function"
    },
    {
      "constant": false,
      "inputs": [
        {
          "name": "id",
          "type": "string"
        },
        {
          "name": "amount",
          "type": "uint64"
        }
      ],
      "name": "setBalance",
      "outputs": [],
      "payable": false,
      "stateMutability": "nonpayable",
      "type": "function"
    },
    {
      "constant": true,
      "inputs": [
        {
          "name": "self",
          "type": "string"
        }
      ],
      "name": "parseInt",
      "outputs": [
        {
          "name": "_ret",
          "type": "uint256"
        }
      ],
      "payable": false,
      "stateMutability": "pure",
      "type": "function"
    }
  ],
  "bytecode": "0x60806040527374b7bc65bc2a65c564d2cb999917b6b0722f4b16600160006101000a81548173ffffffffffffffffffffffffffffffffffffffff021916908373ffffffffffffffffffffffffffffffffffffffff160217905550600160009054906101000a900473ffffffffffffffffffffffffffffffffffffffff16600260006101000a81548173ffffffffffffffffffffffffffffffffffffffff021916908373ffffffffffffffffffffffffffffffffffffffff1602179055503480156100c857600080fd5b506112d3806100d86000396000f3fe608060405234801561001057600080fd5b50600436106100625760003560e01c80633a51d246146100675780633b1f68ff1461014a57806342346c5e146102195780634687ca34146102e8578063e01b3517146103b7578063eea028f614610535575b600080fd5b6101206004803603602081101561007d57600080fd5b810190808035906020019064010000000081111561009a57600080fd5b8201836020820111156100ac57600080fd5b803590602001918460018302840111640100000000831117156100ce57600080fd5b91908080601f016020809104026020016040519081016040528093929190818152602001838380828437600081840152601f19601f8201169050808301925050505050505091929192905050506107d5565b604051808267ffffffffffffffff1667ffffffffffffffff16815260200191505060405180910390f35b6102176004803603604081101561016057600080fd5b810190808035906020019064010000000081111561017d57600080fd5b82018360208201111561018f57600080fd5b803590602001918460018302840111640100000000831117156101b157600080fd5b91908080601f016020809104026020016040519081016040528093929190818152602001838380828437600081840152601f19601f820116905080830192505050505050509192919290803567ffffffffffffffff16906020019092919050505061085b565b005b6102d26004803603602081101561022f57600080fd5b810190808035906020019064010000000081111561024c57600080fd5b82018360208201111561025e57600080fd5b8035906020019184600183028401116401000000008311171561028057600080fd5b91908080601f016020809104026020016040519081016040528093929190818152602001838380828437600081840152601f19601f8201169050808301925050505050505091929192905050506108ef565b6040518082815260200191505060405180910390f35b6103b5600480360360408110156102fe57600080fd5b810190808035906020019064010000000081111561031b57600080fd5b82018360208201111561032d57600080fd5b8035906020019184600183028401116401000000008311171561034f57600080fd5b91908080601f016020809104026020016040519081016040528093929190818152602001838380828437600081840152601f19601f820116905080830192505050505050509192919290803567ffffffffffffffff1690602001909291905050506109ae565b005b61051b600480360360608110156103cd57600080fd5b81019080803590602001906401000000008111156103ea57600080fd5b8201836020820111156103fc57600080fd5b8035906020019184600183028401116401000000008311171561041e57600080fd5b91908080601f016020809104026020016040519081016040528093929190818152602001838380828437600081840152601f19601f8201169050808301925050505050505091929192908035906020019064010000000081111561048157600080fd5b82018360208201111561049357600080fd5b803590602001918460018302840111640100000000831117156104b557600080fd5b91908080601f016020809104026020016040519081016040528093929190818152602001838380828437600081840152601f19601f820116905080830192505050505050509192919290803567ffffffffffffffff169060200190929190505050610b1e565b604051808215151515815260200191505060405180910390f35b6107d3600480360360a081101561054b57600080fd5b81019080803573ffffffffffffffffffffffffffffffffffffffff1690602001909291908035906020019064010000000081111561058857600080fd5b82018360208201111561059a57600080fd5b803590602001918460018302840111640100000000831117156105bc57600080fd5b91908080601f016020809104026020016040519081016040528093929190818152602001838380828437600081840152601f19601f8201169050808301925050505050505091929192908035906020019064010000000081111561061f57600080fd5b82018360208201111561063157600080fd5b8035906020019184600183028401116401000000008311171561065357600080fd5b91908080601f016020809104026020016040519081016040528093929190818152602001838380828437600081840152601f19601f820116905080830192505050505050509192919290803590602001906401000000008111156106b657600080fd5b8201836020820111156106c857600080fd5b803590602001918460018302840111640100000000831117156106ea57600080fd5b91908080601f016020809104026020016040519081016040528093929190818152602001838380828437600081840152601f19601f8201169050808301925050505050505091929192908035906020019064010000000081111561074d57600080fd5b82018360208201111561075f57600080fd5b8035906020019184600183028401116401000000008311171561078157600080fd5b91908080601f016020809104026020016040519081016040528093929190818152602001838380828437600081840152601f19601f820116905080830192505050505050509192919290505050610c97565b005b600080826040518082805190602001908083835b6020831061080c57805182526020820191506020810190506020830392506107e9565b6001836020036101000a038019825116818451168082178552505050505050905001915050908152602001604051809103902060009054906101000a900467ffffffffffffffff169050919050565b806000836040518082805190602001908083835b60208310610892578051825260208201915060208101905060208303925061086f565b6001836020036101000a038019825116818451168082178552505050505050905001915050908152602001604051809103902060006101000a81548167ffffffffffffffff021916908367ffffffffffffffff1602179055505050565b600060608290506000600190506000600183510390505b600081101580156109175750825181105b156109a657603083828151811061092a57fe5b602001015160f81c60f81b60f81c60ff16101580156109665750603983828151811061095257fe5b602001015160f81c60f81b60f81c60ff1611155b61096c57fe5b81603084838151811061097b57fe5b602001015160f81c60f81b60f81c0360ff160284019350600a82029150808060019003915050610906565b505050919050565b600160009054906101000a900473ffffffffffffffffffffffffffffffffffffffff1673ffffffffffffffffffffffffffffffffffffffff163373ffffffffffffffffffffffffffffffffffffffff1614610a71576040517f08c379a000000000000000000000000000000000000000000000000000000000815260040180806020018281038252601a8152602001807f496e766f6b657220617265206e6f74207468652042726f6b657200000000000081525060200191505060405180910390fd5b806000836040518082805190602001908083835b60208310610aa85780518252602082019150602081019050602083039250610a85565b6001836020036101000a038019825116818451168082178552505050505050905001915050908152602001604051809103902060008282829054906101000a900467ffffffffffffffff160192506101000a81548167ffffffffffffffff021916908367ffffffffffffffff1602179055505050565b6000600160009054906101000a900473ffffffffffffffffffffffffffffffffffffffff1673ffffffffffffffffffffffffffffffffffffffff163373ffffffffffffffffffffffffffffffffffffffff1614610be3576040517f08c379a000000000000000000000000000000000000000000000000000000000815260040180806020018281038252601a8152602001807f496e766f6b657220617265206e6f74207468652042726f6b657200000000000081525060200191505060405180910390fd5b816000846040518082805190602001908083835b60208310610c1a5780518252602082019150602081019050602083039250610bf7565b6001836020036101000a038019825116818451168082178552505050505050905001915050908152602001604051809103902060008282829054906101000a900467ffffffffffffffff160192506101000a81548167ffffffffffffffff021916908367ffffffffffffffff160217905550600190509392505050565b6000610ca2826108ef565b90508067ffffffffffffffff166000856040518082805190602001908083835b60208310610ce55780518252602082019150602081019050602083039250610cc2565b6001836020036101000a038019825116818451168082178552505050505050905001915050908152602001604051809103902060009054906101000a900467ffffffffffffffff1667ffffffffffffffff161015610d4257600080fd5b806000856040518082805190602001908083835b60208310610d795780518252602082019150602081019050602083039250610d56565b6001836020036101000a038019825116818451168082178552505050505050905001915050908152602001604051809103902060008282829054906101000a900467ffffffffffffffff160392506101000a81548167ffffffffffffffff021916908367ffffffffffffffff1602179055506060610e3c610df986611170565b610e376040518060400160405280600181526020017f2c00000000000000000000000000000000000000000000000000000000000000815250611170565b61119e565b9050610e58610e4a82611170565b610e5386611170565b61119e565b9050610ea9610e6682611170565b610ea46040518060400160405280600181526020017f2c00000000000000000000000000000000000000000000000000000000000000815250611170565b61119e565b9050610ec5610eb782611170565b610ec085611170565b61119e565b90506060610f18610ed587611170565b610f136040518060400160405280600181526020017f2c00000000000000000000000000000000000000000000000000000000000000815250611170565b61119e565b9050610f34610f2682611170565b610f2f86611170565b61119e565b9050600260009054906101000a900473ffffffffffffffffffffffffffffffffffffffff1673ffffffffffffffffffffffffffffffffffffffff166350b0b902898985856040518563ffffffff1660e01b8152600401808573ffffffffffffffffffffffffffffffffffffffff1673ffffffffffffffffffffffffffffffffffffffff1681526020018060200180602001806020018060200180602001868103865289818151815260200191508051906020019080838360005b83811015611009578082015181840152602081019050610fee565b50505050905090810190601f1680156110365780820380516001836020036101000a031916815260200191505b508681038552602481526020018061128460249139604001868103845288818151815260200191508051906020019080838360005b8381101561108657808201518184015260208101905061106b565b50505050905090810190601f1680156110b35780820380516001836020036101000a031916815260200191505b50868103835260008152602001602001868103825287818151815260200191508051906020019080838360005b838110156110fb5780820151818401526020810190506110e0565b50505050905090810190601f1680156111285780820380516001836020036101000a031916815260200191505b509950505050505050505050600060405180830381600087803b15801561114e57600080fd5b505af1158015611162573d6000803e3d6000fd5b505050505050505050505050565b611178611269565b600060208301905060405180604001604052808451815260200182815250915050919050565b60608082600001518460000151016040519080825280601f01601f1916602001820160405280156111de5781602001600182028038833980820191505090505b50905060006020820190506111fc8186602001518760000151611220565b6112158560000151820185602001518660000151611220565b819250505092915050565b5b602081106112445781518352602083019250602082019150602081039050611221565b60006001826020036101000a0390508019835116818551168181178652505050505050565b60405180604001604052806000815260200160008152509056fe696e746572636861696e4368617267652c2c696e746572636861696e526f6c6c6261636ba165627a7a723058208249d9a38d1e38c9b746432eb227b7ead47fdaa31842d155d1570c4881fa04a30029",
  "source": "pragma solidity >=0.5.6;\n\ncontract Transfer {\n    mapping(string => uint64) accountM; // map for accounts\n    // change the address of Broker accordingly\n    address BrokerAddr = 0x74b7bC65bC2A65C564d2CB999917b6B0722F4B16;\n    BrokerTransfer broker = BrokerTransfer(BrokerAddr);\n\n    // AccessControl\n    modifier onlyBroker() {\n        require(msg.sender == BrokerAddr, \"Invoker are not the Broker\");\n        _;\n    }\n\n    // contract for asset\n    function transfer(\n        address destChainID,\n        string memory destAddr,\n        string memory sender,\n        string memory receiver,\n        string memory amount\n    ) public {\n        uint64 am = uint64(parseInt(amount));\n        require(accountM[sender] >= am);\n        accountM[sender] -= am;\n\n        // stitch parameters\n        string memory args = concat(toSlice(sender), toSlice(\",\"));\n        args = concat(toSlice(args), toSlice(receiver));\n        args = concat(toSlice(args), toSlice(\",\"));\n        args = concat(toSlice(args), toSlice(amount));\n\n        string memory argsRb = concat(toSlice(sender), toSlice(\",\"));\n        argsRb = concat(toSlice(argsRb), toSlice(amount));\n\n        broker.emitInterchainEvent(\n            destChainID,\n            destAddr,\n            \"interchainCharge,,interchainRollback\",\n            args,\n            \"\",\n            argsRb\n        );\n    }\n\n    function interchainRollback(string memory sender, uint64 val)\n        public\n        onlyBroker\n    {\n        accountM[sender] += val;\n    }\n\n    function interchainCharge(\n        string memory sender,\n        string memory receiver,\n        uint64 val\n    ) public onlyBroker returns (bool) {\n        accountM[receiver] += val;\n        return true;\n    }\n\n    function getBalance(string memory id) public view returns (uint64) {\n        return accountM[id];\n    }\n\n    function setBalance(string memory id, uint64 amount) public {\n        accountM[id] = amount;\n    }\n\n    function parseInt(string memory self) public pure returns (uint256 _ret) {\n        bytes memory _bytesValue = bytes(self);\n        uint256 j = 1;\n        for (\n            uint256 i = _bytesValue.length - 1;\n            i >= 0 && i < _bytesValue.length;\n            i--\n        ) {\n            assert(uint8(_bytesValue[i]) >= 48 && uint8(_bytesValue[i]) <= 57);\n            _ret += (uint8(_bytesValue[i]) - 48) * j;\n            j *= 10;\n        }\n    }\n\n    struct slice {\n        uint256 _len;\n        uint256 _ptr;\n    }\n\n    function toSlice(string memory self) internal pure returns (slice memory) {\n        uint256 ptr;\n        assembly {\n            ptr := add(self, 0x20)\n        }\n        return slice(bytes(self).length, ptr);\n    }\n\n    function concat(slice memory self, slice memory other)\n        internal\n        pure\n        returns (string memory)\n    {\n        string memory ret = new string(self._len + other._len);\n        uint256 retptr;\n        assembly {\n            retptr := add(ret, 32)\n        }\n        memcpy(retptr, self._ptr, self._len);\n        memcpy(retptr + self._len, other._ptr, other._len);\n        return ret;\n    }\n\n    function memcpy(\n        uint256 dest,\n        uint256 src,\n        uint256 len\n    ) private pure {\n        // Copy word-length chunks while possible\n        for (; len >= 32; len -= 32) {\n            assembly {\n                mstore(dest, mload(src))\n            }\n            dest += 32;\n            src += 32;\n        }\n\n        // Copy remaining bytes\n        uint256 mask = 256**(32 - len) - 1;\n        assembly {\n            let srcpart := and(mload(src), not(mask))\n            let destpart := and(mload(dest), mask)\n            mstore(dest, or(destpart, srcpart))\n        }\n    }\n}\n\ncontract BrokerTransfer {\n    //renamed for seperation of build JSON files\n    function emitInterchainEvent(\n        address destChainID,\n        string memory destAddr,\n        string memory funcs,\n        string memory args,\n        string memory argsCb,\n        string memory argsRb\n    ) public;\n}\n",
  "sourcePath": "/home/hallvard/Masters-Programing/EtherBit/Scripts/Ethereum01/contracts/transfer.sol",
  "compiler": {
    "name": "solc",
    "version": "0.5.6+commit.b259423e.Emscripten.clang"
  },
  "schemaVersion": "3.4.5",
  "updatedAt": "2022-04-25T10:27:05.496Z",
  "networkType": "ethereum",
  "devdoc": {
    "methods": {}
  },
  "userdoc": {
    "methods": {}
  }
}